:1000000000800010F50000005101000059010000BF
:1000100061010000690100007101000000000000A2
:100020000000000000000000000000007901000056
:100030008101000000000000890100008902000029
:100040009101000091010000610400009101000095
:100050009101000091010000910100009101000058
:100060009101000091010000910100009101000048
:100070009101000091010000910100009101000038
:100080009101000091010000910100009101000028
:100090009101000091010000910100009101000018
:1000A0009101000091010000910100009101000008
:1000B00091010000910100009101000091010000F8
:1000C000910100009101000091010000C0DA0000E0
:1000D00000000010500B0000C0DA000000C0072034
:1000E00000000000500B00105009000000C0072065
:1000F0000000000080B582B000AF104B7B60104B59
:100100003B6007E07A68131D7B603B68191D39600E
:1001100012681A603B680B4A9342F3D30A480B49B2
:100120004FF000028842B8BF40F8042BFADB00F021
:10013000C3FE00F069FC00BFFDE700BFC0DA0000AD
:1001400000000010500B0010500B0010A014001005
:1001500080B400AF00BFFDE780B400AF00BFFDE793
:1001600080B400AF00BFFDE780B400AF00BFFDE783
:1001700080B400AF00BFFDE780B400AF00BFFDE773
:1001800080B400AF00BFFDE780B400AF00BFFDE763
:1001900080B400AF00BFFDE780B483B000AF03467A
:1001A000FB71FB7903F01F03012202FA03F1054AF8
:1001B00097F907305B0942F8231000BF0C37BD46A2
:1001C00080BC704700E100E080B483B000AF03461C
:1001D0003960FB7197F90730002B0BDA3B68DAB214
:1001E0000C49FB7903F00F03043BD200D2B20B445D
:1001F0001A7609E03B68DAB2074997F90730D2006E
:10020000D2B20B4483F8002300BF0C37BD4680BC3C
:10021000704700BF00ED00E000E100E080B582B073
:1002200000AF78607B68B3F1807F01D3012311E0D8
:100230007B6823F07F43094A013B53601F214FF045
:10024000FF30FFF7C1FF054B00229A60034B0722E6
:100250001A60002318460837BD4680BD10E000E054
:1002600080B400AF024B1846BD4680BC704700BF4B
:100270000060A65A80B400AF024B1B681846BD460A
:1002800080BC7047980F001080B500AF044B1B680E
:100290000133034A136003F03BFB00BF80BD00BF86
:1002A000980F001080B588B000AF0223BB70002308
:1002B0003B710023FB7000233B7007237B703B46A0
:1002C000184604F071FE08237B703B46184604F084
:1002D0006BFE09237B703B46184604F065FE002345
:1002E000BB7002233B7002237B703B46184604F030
:1002F0005BFE07F10803184604F04AFF07F1080304
:100300001946054804F0D6FE0121034804F05EFFBB
:1003100000BF2037BD4680BD0000034080B582B0DD
:1003200000AF0223BB700A237B7000233B703B4667
:10033000184604F039FE0B237B703B46184604F048
:1003400033FE0649064804F031FB0121044804F05D
:100350007FFB00BF0837BD4680BD00BFA0860100FF
:1003600000000A4080B582B000AF0123BB700023BB
:100370003B710023FB7017237B7000233B703B46CF
:10038000184604F011FE0949094803F0B3FE0022A3
:100390000021074803F036FF01220021044803F042
:1003A0007FFF00BF0837BD4680BD00BF400D030082
:1003B0000040034080B582B000AF0223BB70002331
:1003C0003B710023FB701A237B7000233B703B467C
:1003D000184604F0E9FD144804F0C0F801224FF07B
:1003E0000061002004F052F901224FF080510020FA
:1003F00004F04CF901224FF40051022004F046F9B8
:100400004FF00061002004F07BF94FF08051002094
:1004100004F076F94FF40051022004F071F900BFA6
:100420000837BD4680BD00BF00C0084080B582B01F
:1004300000AF0023BB7000233B710023FB7004233B
:100440007B7000233B703B46184604F0ADFD002254
:100450001021002004F01AF900BF0837BD4680BD06
:1004600080B586B000AF00214B4805F055F9034632
:10047000002B00F08C80494B1B78002B00F0828011
:10048000464B93F8913483F00103DBB2002B79D013
:10049000424B93F892341A46404B134493F89334EA
:1004A000002B6FD03D4B93F892341B023C4A13440F
:1004B0007B613A4BD3F898347A6913441B781AB2AB
:1004C000364BD3F89834013379690B441B781B02FF
:1004D0001BB213437B82B7F9122013465B0013440F
:1004E0005B00304A82FB03125210DB17D31AFB6009
:1004F000FB68B3F5004F05DAFB682B4A9342B8BF9F
:10050000134601E047F6FF73FB60FB6803F5004309
:100510001A46224B9B6802FB03F3244AA2FB0323E7
:100520005B09BB60BA6813469B029B1A204AA2FB78
:100530000323DB0BFB80FB8819461E4804F026F8DA
:10054000164BD3F898340233144AC2F89834134B3C
:10055000D3F89834FF2B15D9104B93F892341A46E0
:100560000E4B1344002283F893240C4B93F89234DF
:1005700083F00103DAB2094B83F89224074B00227F
:10058000C3F898240021044805F012F900E000BFE8
:100590001837BD4680BD00BF00800040000000103D
:1005A000500B0010676666660080FFFF1F85EB51E9
:1005B0000180008000C0084080B594B002AF786030
:1005C00000F0CEF8012279685E4802F05DF803463B
:1005D00087F8433097F84330002B08D0012300936D
:1005E0000023594A2D21012003F060FCA6E007F109
:1005F000380307F10C012C22524802F0B8F997F8A1
:1006000024301A4697F825301B021A4397F82630F3
:100610001B041A4397F827301B0613431A464B4B0B
:10062000C3F8782497F834301A4697F835301B020F
:100630001A4397F836301B041A4397F837301B06D5
:1006400013431A46414BC3F88C2497F822301AB250
:1006500097F823301B021BB213431BB29AB23B4BD9
:10066000A3F880243B7B522B0DD17B7B492B0AD1F5
:10067000364BB3F88034012B05D1344BD3F87834A2
:10068000B3F5FA5F0BD0012300930023304A2D21EC
:10069000012003F00BFC2B4802F049FB4EE02B4BF2
:1006A00001221A70294B002283F89124274B002243
:1006B00083F89224254B0022C3F8982400237B64FE
:1006C0002DE0224BD3F88C34B3F5807F28BF4FF454
:1006D0008073FB637B6C1B021E4A991807F1380379
:1006E000FA6B184802F043F9034687F84330BB6BB6
:1006F000002B14BF01230023D9B2144A7B6C13448E
:1007000003F293430A461A70104BD3F88C24BB6B48
:10071000D31A0E4AC2F88C347B6C01337B647B6C39
:10072000012BCEDD01210C4805F048F9012300938F
:1007300000230A4A2D21012003F0B8FB4837BD46AB
:1007400080BD00BF5402001038D20000000000102D
:1007500044D20000500B0010008000404CD200003A
:1007600080B500AF0C4B1B78002B12D00A4B002237
:100770001A70094B002283F891240021074805F0E4
:100780001DF9074802F0D3FA4FF40071054803F051
:10079000FDFE00BF80BD00BF0000001000800040D3
:1007A0005402001000C0084080B586B000AF01239D
:1007B0003B7401237B610021124805F0FFF807F12B
:1007C00010031A4600210F4805F036F800233B724B
:1007D00001237B710123FB710023BB7100233B715B
:1007E0007D23FB603B1D1946064805F01FF90220DA
:1007F000FFF7D2FC0121034805F0E0F800BF1837ED
:10080000BD4680BD0080004080B582B000AF0023AF
:10081000BB7000233B710023FB7002233B7000235D
:100820007B703B46184604F0BFFB02233B7001235C
:100830007B703B46184604F0B7FB002201210220E2
:1008400003F024FF00220221022003F01FFF00BF5B
:100850000837BD4680BDFFFF80B586B000AF0346B8
:10086000FB710023FB824FF6FF73BB820023FB73F7
:10087000FB79022B05D80023FB824FF6FF73BB8266
:1008800033E0FB79DB0063331D4A82FB0312521114
:10089000DB17D31AFB7300233B610CE001223B6999
:1008A00002FA03F31AB2B7F9163013431BB2FB82F4
:1008B0003B6901333B61FB7B3A699A4202DA3B694F
:1008C000072BEBDDFB7B3B610CE001223B6902FA6D
:1008D00003F31AB2B7F9143013431BB2BB823B695E
:1008E00001333B613B69072BEFDDBA8AFB8A114676
:1008F000184603F0BFFB00BF1837BD4680BD00BFE0
:100900001F85EB5180B584B002AF2F4B1B7B83F06A
:100910000103DBB2002B52D1012003F029FA00239E
:100920007B6046E0284B5B687A689A421FD17B68FF
:10093000DBB2DB00DBB20133D9B201230093002329
:10094000224A012003F0B2FA7B68DBB2DB00DBB2A3
:100950000133D9B27B689B0110331B4A13441A1D23
:100960000023009301230A2003F0A0FA1EE07B6815
:10097000DBB2DB00DBB20133D9B2012300930023E9
:10098000134A012003F092FA7B68DBB2DB00DBB292
:100990000133D9B27B689B0110330B4A13441A1DF3
:1009A0000123009300230A2003F080FA7B680133BF
:1009B0007B60054B1B697A689A42B3DB00E000BF9D
:1009C0000837BD4680BD00BF0000001058D20000AF
:1009D0005CD2000080B584B000AF78607B68FB60BB
:1009E000FB68642B01D96423FB60064AFB689360B3
:1009F000044B9B68DBB21846FFF72EFF00BF103791
:100A0000BD4680BD0000001080B59CB002AF002341
:100A10007B66012387F86330002387F8623000F09B
:100A20004BFAA74B1B68A74AA2FB03239B09184656
:100A3000FFF7F4FBA44805F0BDF8FFF733FCFFF720
:100A40006DFCFFF78FFCFFF7F1FCFFF7DDFEFFF712
:100A5000B1FCFFF7A9FE03F007FB02F0A9FF9B48DA
:100A600005F0A8F803F0A2F8012003F081F90123B2
:100A700000930023964A0121012003F017FA012375
:100A800000930023934A0A21012003F00FFA322039
:100A9000FFF7A0FF904B9B68DBB21846FFF7DCFE28
:100AA000002002F089FB034687F85B3097F85B3043
:100AB00003F00103002B07D0012300930023874A92
:100AC0001321012003F0F2F997F85B3003F00203E1
:100AD000002B07D0012300930023814A1C21012011
:100AE00003F0E4F9012003F043F97E49002001F00E
:100AF000A1FD034687F85A3097F85A30002B09D0E9
:100B0000012300930023784A1421012003F0CEF939
:100B10000123C5E1012300930023744A142101201D
:100B200003F0C4F907F124037149184602F013F9E0
:100B3000034687F85A3097F85A30002B09D0012322
:100B4000009300236B4A1E21012003F0AFF901231B
:100B5000A6E1614B00221A6145E007F124036649D2
:100B6000184602F05AF9034687F85A3097F85A3077
:100B7000002B3CD1604B5B7A002B38D05E4B1B7A4C
:100B800003F01003002B2ED12E215C4805F06AFAE9
:100B900078657B6D002B26D05949786D05F078FA81
:100BA0000346002B06D05749786D05F071FA0346CD
:100BB000002B18D1484B1B699B011033464A134444
:100BC00004333F224D49184605F016FA424B1B6983
:100BD000414A9B011344533300221A703E4B1B6958
:100BE00001333D4A13613C4B1B69082BB5D93A4B85
:100BF0001A693B1D4449184605F08CF93A1D01233A
:100C0000009300231E21012003F050F92E4804F028
:100C1000D1FFFFF777FE304B1B69002B09DD2E4B10
:100C20005B689B0110332C4A134404331846FFF7CA
:100C3000C3FCFFF71FFB38653A6D7B6ED31AC72BD9
:100C40002ED93B6D7B660121304803F09BFA00BF33
:100C5000012200212D4803F079FB0346002BF7D039
:100C600000212A4803F04CFB03461A46642303FB89
:100C700002F2274BA3FB0213D21A52081344DB0AD9
:100C8000FB64FB6C144A92689B1ABB64BB6C022B1E
:100C900003DCBB6C13F1020F02DAF86CFFF79AFE6B
:100CA0000D4B1B78002B79D00B4B93F8913483F0CC
:100CB0000103DBB2002B71D00023FB656BE000BFAA
:100CC0009C040010D34D6210A086010040420F002A
:100CD00060D200006CD200000000001074D200004E
:100CE00080D20000680D00108CD200009CD2000061
:100CF000A4D20000A8D20000500D0010590D001021
:100D0000B8D20000C0D20000C8D2000000400340AA
:100D100001011000644AFB6D134403F293431B78F6
:100D200083F00103DBB2002B32D05F4BD3F88C345D
:100D3000002B2DD05C4BD3F88C34B3F5807F28BFCB
:100D40004FF480737B64FB6D1B02584A99183B4635
:100D50007A6C574801F00BFE034687F85A3097F833
:100D60005A30002B12D13B68002B0FD04E4BD3F8DA
:100D70008C243B68D31A4C4AC2F88C344A4AFB6D27
:100D8000134403F2934301221A7001E0FFF7E8FCD9
:100D9000FB6D0133FB65FB6D012BBBDD002003F018
:100DA000C4FC034603F01003002B14BF01230023EF
:100DB00087F8433097F8433083F00103DBB2002B10
:100DC00015D097F86330002B11D0374B1B7B002BCD
:100DD00014BF01230023DBB283F00103DBB203F075
:100DE0000103DAB2304B1A73012387F8623097F8A7
:100DF0006230002B1FD02C4B1B7B83F00103DBB236
:100E0000002B05D0002002F0B3FFFFF7A9FC0FE094
:100E1000FFF778FD244B1B69002B09DD224B5B6833
:100E20009B011033204A134404331846FFF7C4FBD8
:100E3000002387F8623097F8433087F863301A4B05
:100E40001B78002B3FF4F5AE174B93F8913483F0E9
:100E50000103DBB2002B3FF4ECAE134BD3F88C3420
:100E6000002B7FF4E6AE104B93F8933483F001032C
:100E7000DBB2002B3FF4DDAE0B4B93F8943483F0E0
:100E80000103DBB2002B3FF4D4AEFFF769FC012372
:100E900000930023074A2D21012003F007F8C8E63C
:100EA00018466837BD4680BD00000010500B00108A
:100EB00054020010DCD2000080B400AF4B4B202263
:100EC000C3F8A02100BF494BD3F8A03103F0400381
:100ED000002BF8D0454B0322C3F80421434B0022DA
:100EE000C3F8A821414B0022C3F8AC213F4B01229B
:100EF000C3F80C213D4B3E4AC3F884203B4BAA2249
:100F0000C3F88C20394B5522C3F88C20374B012273
:100F1000C3F88020354BAA22C3F88C20334B5522CE
:100F2000C3F88C2000BF314BD3F8883003F08063C6
:100F3000002BF8D02D4B0322C3F880202B4BAA2284
:100F4000C3F88C20294B5522C3F88C2000BF274BB7
:100F5000D3F8883003F04073002BF8D0234B2322C2
:100F6000C3F8A420214BAA22C3F8AC201F4B552262
:100F7000C3F8AC201D4B0122C3F8A0201B4BAA22B2
:100F8000C3F8AC20194B5522C3F8AC2000BF174B57
:100F9000D3F8A83003F48063002BF8D0134B03225E
:100FA000C3F8A020114BAA22C3F8AC200F4B552246
:100FB000C3F8AC2000BF0D4BD3F8A83003F4407346
:100FC000002BF8D0094B0B4AC3F8C420074B002272
:100FD000C3F8C821054B1B6823F47043034A43F44C
:100FE0008043136000BFBD4680BC704700C00F4007
:100FF00063000500DE87280480B487B000AFF86086
:10100000B9607A60FB687B61BB683B6107E03A6965
:10101000531C3B617B69591C796112781A707B689B
:101020005A1E7A60002BF2D100BF00BF1C37BD46AC
:1010300080BC704780B487B000AFF860B9607A6058
:10104000FB687B6105E07B695A1C7A61BA68D2B2A1
:101050001A707B685A1E7A60002BF4D100BF00BF63
:101060001C37BD4680BC704780B489B000AFF860C3
:10107000B9607A60FB68FB61BB68BB6100237B6180
:1010800000BF7B685A1E7A60002B0DD0FB695A1C8A
:10109000FA611B781946BB695A1CBA611B78CB1AD6
:1010A0007B617B69002BECD07B6918462437BD46F9
:1010B00080BC704780B483B000AF7860396002E0D4
:1010C0007B6801337B607B681B78002B05D07B68D5
:1010D0001B781A463B689342F2D17B681B7818460E
:1010E0000C37BD4680BC704780B584B000AF7860D7
:1010F00039607B68DB6AFB60FA683B689A4248D0DB
:101100007B681B79002B30D07B6858787B6803F1B3
:1011100030010123FA6802F0ABF90346002B01D03D
:10112000012337E07B6800221A717B681A6A7B68AA
:101130009B691344FA689A4217D27B68DB78FB728A
:1011400010E07B689B69FA681344FB607B68587801
:101150007B6803F130010123FA6802F089F9FB7A18
:10116000013BFB72FB7A012BEBD83B68002B10D0C4
:101170007B6858787B6803F1300101233A6802F0FC
:101180000FF90346002B01D0012303E07B683A6886
:10119000DA62002318461037BD4680BD80B584B0A2
:1011A00000AF786000217868FFF79EFF0346FB736D
:1011B000FB7B002B40F08E807B681B78032B7DD15E
:1011C0007B685B79002B79D07B680022DA627B68D0
:1011D00030334FF4007200211846FFF72BFF7B6875
:1011E000552283F82E227B68AA2283F82F227B685F
:1011F000522283F830207B68522283F831207B68AA
:10120000612283F832207B68412283F833207B6897
:10121000722283F814227B68722283F815227B687D
:10122000412283F816227B68612283F817227B68AB
:101230001B69DAB27B6883F818227B681B699BB252
:101240001B0A9BB2DAB27B6883F819227B681B69A0
:101250001B0CDAB27B6883F81A227B681B691B0EB1
:10126000DAB27B6883F81B227B68DB68DAB27B68C2
:1012700083F81C227B68DB689BB21B0A9BB2DAB244
:101280007B6883F81D227B68DB681B0CDAB27B6805
:1012900083F81E227B68DB681B0EDAB27B6883F85A
:1012A0001F227B6858787B6803F130017B685A699C
:1012B000012302F0DDF87B6800225A717B685B78BD
:1012C00000220021184602F053F90346002B01D0FA
:1012D0000123FB73FB7B18461037BD4680BD80B5EC
:1012E00086B000AF786039603B68012B04D97B6819
:1012F000DB693A689A4201D30123B7E07B681B6A35
:101300007B617B681B78032B6CD0032B00F3AC80D4
:10131000012B02D0022B40D0A6E03B683B613B6929
:101320005B083A6913443B613B695A0A7B69134481
:1013300019467868FFF7D8FE0346002B40F08D80F1
:101340003B69C3F308037A68134493F83030FB60B9
:101350003B6901333B613B695A0A7B691344194677
:101360007868FFF7C1FE0346002B78D13B69C3F3D1
:1013700008037A68134493F830301B02FA68134369
:10138000FB603B6803F00103002B02D0FB681B09E4
:101390006CE0FB68C3F30B0368E03B681A0A7B69E7
:1013A000134419467868FFF79FFE0346002B58D177
:1013B0003B689BB25B0003F4FF7330337A681344DD
:1013C00001331B781B021AB23B689BB25B0003F42B
:1013D000FF7379680B4493F830301BB213431BB290
:1013E0009BB243E03B68DA097B691344194678688D
:1013F000FFF77AFE0346002B35D13B689BB29B007A
:1014000003F4FE7330337A68134403331B781A06EF
:101410003B689BB29B0003F4FE73303379680B4446
:1014200002331B781B041A433B689BB29B0003F4F6
:10143000FE73303379680B4401331B781B0213436E
:101440003A6892B2920002F4FE7279680A4492F805
:101450003020134323F0704308E000BF04E000BFD6
:1014600002E000BF00E000BF4FF0FF33184618371E
:10147000BD4680BD80B588B000AFF860B9607A60C5
:10148000BB68012B04D9FB68DB69BA689A4202D3B6
:101490000223FB77F1E0FB681B6ABB61FB681B78EA
:1014A000032B00F09A80032B00F3DA80012B02D08B
:1014B000022B69D0D4E0BB687B617B695B087A69E9
:1014C00013447B617B695A0ABB6913441946F86867
:1014D000FFF70AFE0346FB77FB7F002B40F0C3803B
:1014E0007B69C3F308033033FA6813443B61BB687C
:1014F00003F00103002B0DD03B691B785BB203F0B6
:101500000F035AB27B68DBB21B015BB213435BB2C1
:10151000DBB201E07B68DBB23A6913707B690133AF
:101520007B61FB6801221A717B695A0ABB6913440B
:101530001946F868FFF7D8FD0346FB77FB7F002BC1
:1015400040F093807B69C3F308033033FA68134497
:101550003B61BB6803F00103002B03D07B681B09D0
:10156000DBB20EE03B691B785BB223F00F035AB28B
:101570007B681B0A5BB203F00F035BB213435BB2E1
:10158000DBB23A69137075E0BB681A0ABB69134491
:101590001946F868FFF7A8FD0346FB77FB7F002B91
:1015A00065D1BB689BB25B0003F4FF737A68D1B26C
:1015B000FA6813440A4683F830207B689BB21B0A02
:1015C00099B2BB689BB25B0003F4FF733033FA68D7
:1015D00013440133CAB21A704CE0BB68DA09BB6924
:1015E00013441946F868FFF77FFD0346FB77FB7F3E
:1015F000002B3ED1BB689BB29B0003F4FE737A685C
:10160000D1B2FA6813440A4683F830207B689BB253
:101610001B0A99B2BB689BB29B0003F4FE73303384
:10162000FA6813440133CAB21A707B68190CBB689C
:101630009BB29B0003F4FE733033FA681344023309
:10164000CAB21A707B68190EBB689BB29B0003F488
:10165000FE733033FA6813440333CAB21A7009E0D8
:101660000223FB7706E000BF04E000BF02E000BFFA
:1016700000E000BFFB6801221A71FB7F184620378B
:10168000BD4680BD80B584B000AF786039603B68EE
:10169000012B04D97B68DB693A689A4202D30223A2
:1016A000FB7339E00023FB732DE039687868FFF79E
:1016B00016FEB860BB68002B2BD0BB68012B02D193
:1016C0000223FB7328E0BB68B3F1FF3F02D1012383
:1016D000FB7321E0002239687868FFF7CBFE0346F0
:1016E000FB73FB7B002B16D17B681B69B3F1FF3FBB
:1016F00007D07B681B695A1C7B681A617B680122D2
:101700005A71BB683B607B68DB693A689A42CCD30C
:1017100002E000BF00E000BFFB7B18461037BD466B
:1017200080BD80B586B000AF786039607B68DB69CA
:10173000FB603B68002B0CD17B68DB683B613B693D
:10174000002B03D03A69FB689A4214D301233B6112
:1017500011E039687868FFF7C2FDB860BB68012BFB
:1017600001D801235BE0BA68FB689A4201D2BB68EA
:1017700055E03B683B613B697B617B6901337B6181
:101780007A69FB689A4207D302237B617A693B69D5
:101790009A4201D9002342E079697868FFF79FFDFA
:1017A000B860BB68002B0ED0BB68B3F1FF3F02D01E
:1017B000BB68012B01D1BB6831E07A693B699A4271
:1017C000DBD100232BE000BF6FF0704279697868AD
:1017D000FFF750FE0346002B02D04FF0FF331EE010
:1017E0003B68002B0AD07A6939687868FFF742FEB7
:1017F0000346002B02D04FF0FF3310E07B687A697C
:10180000DA607B681B69B3F1FF3F07D07B681B6917
:101810005A1E7B681A617B6801225A717B691846DF
:101820001837BD4680BD80B483B000AF78603960A2
:101830003B68023B3B607B68DB69023B3A689A424B
:1018400001D3002308E07B689B781A463B6803FBC2
:1018500002F27B689B6A134418460C37BD4680BC75
:10186000704780B584B000AF78600B467B807B68A2
:101870007A88DA807B689B68FB60FB68012B05D067
:101880007B681B68DB69FA689A4201D3022365E032
:10189000FB68002B08D17B681B681B78032B03D1E6
:1018A0007B681B685B6AFB60FB68002B14D17B685C
:1018B000FA68DA607B681B681B897A889A4201D3D0
:1018C00002234BE07B681B685B6A7A88120992B23C
:1018D0001A447B681A6135E07B681B689B781B01A2
:1018E0007B811BE07B681B68F9681846FFF7F7FCF3
:1018F000F860FB68B3F1FF3F01D101232EE0FB68E4
:10190000012B05D97B681B68DB69FA689A4201D311
:10191000022323E07A887B89D31A7B807A887B89AB
:101920009A42DFD27B68FA68DA607B681B68F968E4
:101930001846FFF778FF02467B881B099BB21A44C2
:101940007B681A617B681B6803F130027B8803F0B7
:101950000F035B011A447B685A6100231846103755
:10196000BD4680BD90B585B000AF786039607B68BA
:10197000DB8801333B813B89002B03D07B681B69EB
:10198000002B01D10423BDE03B8903F00F039BB280
:10199000002B40F0A8807B681B695A1C7B681A6189
:1019A0007B68DB68002B08D17B681B681B893A8940
:1019B0009A42C0F098800423A4E03B891B099BB2A3
:1019C0001A467B681B689B78013B1340002B40F054
:1019D0008A807B681A687B68DB6819461046FFF7C7
:1019E0007EFCF860FB68012B01D802238AE0FB68CB
:1019F000B3F1FF3F01D1012384E07B681B68DB6901
:101A0000FA689A4263D33B68002B01D1042379E042
:101A10007B681A687B68DB6819461046FFF781FE11
:101A2000F860FB68002B01D107236BE0FB68012BFA
:101A300001D1022366E0FB68B3F1FF3F01D101232E
:101A400060E07B681B6800211846FFF74DFB0346EA
:101A5000002B01D0012355E07B681B6830334FF425
:101A6000007200211846FFF7E5FA7B681A687B6868
:101A70001C68F9681046FFF7D6FE0346E3620023B0
:101A8000FB7216E07B681B6801221A717B681B6879
:101A900000211846FFF728FB0346002B01D0012345
:101AA00030E07B681B68DA6A0132DA62FB7A013364
:101AB000FB727B681B689B78FA7A9A42E2D37B6858
:101AC0001B68D96AFA7A7B681B688A1ADA627B68B3
:101AD000FA68DA607B681B68F9681846FFF7A3FEAE
:101AE00002467B681A617B683A89DA807B681B68EA
:101AF00003F130023B8903F00F035B011A447B685A
:101B00005A61002318461437BD4690BD80B586B093
:101B100000AF786000217868FFF7A3FE0346FB75ED
:101B2000FB7D002B01D0FB7D37E07B681A687B686A
:101B30001B6919461046FFF7D7FA0346FB75FB7D74
:101B4000002B26D17B685B693B613B691B78FB738B
:101B5000FB7B002B02D10423FB751DE03B690B339B
:101B60001B7803F00803002B09D17B689B690B22CB
:101B700019463869FFF778FA0346002B0BD000218D
:101B80007868FFF7EFFE0346FB75FB7D002BCCD09A
:101B900002E000BF00E000BFFB7D18461837BD46DD
:101BA00080BD80B586B000AF78600423FB752EE061
:101BB0007B681A687B681B6919461046FFF794FA20
:101BC0000346FB75FB7D002B26D17B685B693B617F
:101BD0003B691B78FB73FB7B002B02D10423FB7555
:101BE0001FE0FB7BE52B09D0FB7B2E2B06D03B694E
:101BF0000B331B7803F00803002B0FD0002178680B
:101C0000FFF7B0FE0346FB75FB7D002B08D17B6818
:101C10001B69002BCCD104E000BF02E000BF00E054
:101C200000BFFB7D002B02D07B6800221A61FB7D88
:101C300018461837BD4680BD80B584B000AF7860C7
:101C400000217868FFF70DFE0346FB73FB7B002B3A
:101C500021D17B681A687B681B6919461046FFF71B
:101C600043FA0346FB73FB7B002B13D17B685B6954
:101C70001B78BB73BB7BE52B0DD0BB7B002B0AD045
:101C800001217868FFF76EFE0346FB73FB7B002B98
:101C9000DFD000E000BFFB7B002B29D17B681A68F6
:101CA0007B681B6919461046FFF71EFA0346FB7353
:101CB000FB7B002B1CD17B685B69BB602022002171
:101CC000B868FFF7B7F97B689B690B221946B868BB
:101CD000FFF792F97B689B690B331A78BB680C336A
:101CE00002F01802D2B21A707B681B6801221A71C6
:101CF000FB7B18461037BD4680BDFFFF80B58AB01C
:101D000000AF786039607B689B693B610B222021C2
:101D10003869FFF78FF90023FB7700237B617B692C
:101D2000BB6108233B623B681B68FB60BB695A1CB4
:101D3000BA611A46FB6813441B7887F8273097F876
:101D40002730202B5ED997F827302F2B5AD097F8C1
:101D500027305C2B56D097F827302E2B03D07A698A
:101D60003B6A9A4210DB3B6A082B03D197F8273075
:101D70002E2B01D0062381E008237B610B233B62DD
:101D8000FB7F9B00FB773CE097F92730002B06DABE
:101D900097F82730803B3B4AD35C87F8273097F889
:101DA000273019463848FFF785F90346002B01D044
:101DB000062363E097F82730402B08D997F827309F
:101DC0005A2B04D8FB7F43F00203FB7710E097F80F
:101DD0002730602B0CD997F827307A2B08D8FB7F57
:101DE00043F00103FB7797F82730203B87F8273033
:101DF0007B695A1C7A611A463B69134497F827207D
:101E00001A7093E7BB69FA681A443B681A6097F83E
:101E10002730202B01D8042300E0002387F8273047
:101E20007B69002B01D1062328E03B691B78E52B59
:101E300002D13B6905221A703B6A082B02D1FB7F55
:101E40009B00FB77FB7F03F00303012B05D197F881
:101E5000273043F0100387F82730FB7F03F00C0393
:101E6000042B05D197F8273043F0080387F8273073
:101E70003B690B3397F827201A7000231846283740
:101E8000BD4680BDF4D20000E8D2000080B489B025
:101E900000AF786039603B6809337B617B681B6900
:101EA000002B78D07B685B693B613B691B7BFB73D4
:101EB0000023FB6114E0FB693A6913441B78FB764D
:101EC000FB7E202B10D0FB7E052B01D1E523FB767A
:101ED0007B695A1C7A61FA7E1A70FB690133FB61D7
:101EE000FB69072BE7DD00E000BF3B6908331B7887
:101EF000202B1CD07B695A1C7A612E221A70082371
:101F0000FB610FE0FB693A6913441B78FB76FB7EAB
:101F1000202B0BD07B695A1C7A61FA7E1A70FB6900
:101F20000133FB61FB690A2BECDD00E000BF3B697C
:101F3000DA7A3B681A723B691F331B781A063B69D1
:101F40001E331B781B041A433B691D331B781B028D
:101F500013433A691C3212781A433B681A603B6992
:101F600019331B781B021AB23B6918331B781BB25A
:101F700013431BB29AB23B689A803B6917331B78B4
:101F80001B021AB23B6916331B781BB213431BB2F8
:101F90009AB23B68DA807B6900221A7000BF24374E
:101FA000BD4680BC704780B584B000AF78603960B2
:101FB00002E03B6801333B603B681B78202BF8D084
:101FC0003B681B782F2B03D03B681B785C2B02D11E
:101FD0003B6801333B607B6800229A603B681B785A
:101FE0001F2B09D800217868FFF73BFC0346FB73E1
:101FF0007B6800225A6153E03B4619467868FFF738
:102000007DFE0346FB73FB7B002B44D17868FFF712
:102010007DFD0346FB737B689B690B331B7803F0E4
:102020000403BB73FB7B002B08D0FB7B042B34D158
:10203000BB7B002B31D10523FB732EE0BB7B002B38
:102040002DD17B685B69BB60BB680B331B7803F0E9
:102050001003002B02D10523FB7321E0BB6815336D
:102060001B781B021AB2BB6814331B781BB21343D4
:102070001BB29BB21B04BA681B321278120211B257
:10208000BA681A32127812B20A4312B292B21A43E2
:102090007B689A60B0E700BF02E000BF00E000BFCD
:1020A000FB7B18461037BD4680BDFFFF80B582B070
:1020B00000AF786039607B6858787B6803F1300145
:1020C00001233A6801F06CF90346002B01D0032389
:1020D0004AE07B6803F22E2301331B781B021AB2FD
:1020E0007B6893F82E321BB213431BB2204A9342F3
:1020F00001D0022338E07B68663303331B781A066D
:102100007B68663302331B781B041A437B68663393
:1021100001331B781B0213437A6892F8662013433D
:1021200023F07F43134A934201D100231CE07B68D4
:10213000823303331B781A067B68823302331B78A1
:102140001B041A437B68823301331B781B02134341
:102150007A6892F88220134323F07F43054A934222
:1021600001D1002300E0012318460837BD4680BD99
:1021700055AAFFFF4641540080B58EB000AFF8600D
:10218000B9601346FB71FB681B683B623B6A1B78B6
:10219000303B3B633B6B092B0BD83B6A01331B780D
:1021A0003A2B06D13B6A02333B62FB683A6A1A60FB
:1021B00001E000233B633B6B012B01D90B2307E2BA
:1021C000484A3B6B52F82330FB61BB68FA691A60DE
:1021D000FB69002B01D10C23FAE1FB691B78002B72
:1021E00017D0FB695B78184601F0C6F80346FB760A
:1021F000FB7E03F00103002B0BD1FB79002B06D0F3
:10220000FB7E03F00403002B01D00A23E0E100234E
:10221000DEE1FB6900221A703B6BDAB2FB695A708F
:10222000FB695B78184600F0C7FF0346FB76FB7E30
:1022300003F00103002B01D00323C9E1FB79002B3C
:1022400006D0FB7E03F00403002B01D00A23BFE17C
:102250000023FB62F96AF869FFF728FF034687F855
:10226000373097F83730012B22D1FB6903F5F7732C
:102270007B617B6904331B78002B19D07B690B339E
:102280001B781A067B690A331B781B041A437B6987
:1022900009331B781B0213437A69083212781343FF
:1022A000FB62F96AF869FFF701FF034687F83730E8
:1022B00097F83730032B01D1012389E197F83730A4
:1022C000002B0DD1FB6993F83C301B021AB2FB695D
:1022D00093F83B301BB213431BB2B3F5007F03D01E
:1022E0000D2375E19C0F0010FB6993F847301B022A
:1022F0001AB2FB6993F846301BB213431BB29BB270
:10230000BB62BB6A002B12D1FB6993F857301A06E7
:10231000FB6993F856301B041A43FB6993F8553058
:102320001B021343FA6992F854201343BB62FB6902
:10233000BA6A9A61FB6993F84020FB69DA70FB691D
:10234000DB781A46BB6A02FB03F3BB62FB6993F8B6
:102350003F301B021AB2FB6993F83E301BB21343A5
:102360001BB29BB21A46FB6A1A44FB691A62FB69EC
:1023700093F83D20FB699A70FB6993F842301B0289
:102380001AB2FB6993F841301BB213431BB29AB2E5
:10239000FB691A81FB6993F844301B021AB2FB698E
:1023A00093F843301BB213431BB29BB27B627B6A30
:1023B000002B12D1FB6993F853301A06FB6993F88E
:1023C00052301B041A43FB6993F851301B0213432C
:1023D000FA6992F8502013437B62FB6993F83F300F
:1023E0001B021AB2FB6993F83E301BB213431BB2B7
:1023F0009BB21A467B6A9A1ABB6AD31AFA69128987
:10240000120992B29B1AFA699278B3FBF2F3023383
:102410003B61FB693A69DA61012387F837303B6930
:1024200040F6F672934202D9022387F837303B69AF
:102430004FF6F672934202D9032387F8373097F8A4
:102440003730032B14D1FB6993F85F301A06FB6910
:1024500093F85E301B041A43FB6993F85D301B024E
:102460001343FA6992F85C201A43FB695A6205E04B
:10247000FB691A6ABB6A1A44FB695A62FB691A6AE9
:10248000BB6A1344FA691289120992B21A44FB69B1
:102490009A62FB694FF0FF321A61FB6900221A71E0
:1024A00097F83730032B40F08180FB6900225A7186
:1024B000FB6993F861301B021AB2FB6993F8603034
:1024C0001BB213431BB29BB21A46FB6A1A44FB6948
:1024D0005A61FB695878FB6903F13001FB695A695D
:1024E000012300F05DFF0346002B5FD1FB6993F8E9
:1024F0002F321B021AB2FB6993F82E321BB2134320
:102500001BB2354A934251D1FB6993F833301A0616
:10251000FB6993F832301B041A43FB6993F831309E
:102520001B021343FA6992F8302013432B4A93425B
:102530003CD1FB6993F817321A06FB6993F81632FF
:102540001B041A43FB6993F815321B021343FA6903
:1025500092F814221343224A934227D1FB6993F83D
:102560001F321A06FB6993F81E321B041A43FB69DB
:1025700093F81D321B021343FA6992F81C221A4386
:10258000FB69DA60FB6993F81B321A06FB6993F862
:102590001A321B041A43FB6993F819321B021343C6
:1025A000FA6992F818221A43FB691A61FB6997F8D5
:1025B00037201A70FB690022DA620A4B1B8801334C
:1025C0009AB2084B1A80074B1A88FB69DA800023FD
:1025D00018463837BD4680BD55AAFFFF52526141AB
:1025E00072724161A40F001080B582B000AF7860B4
:1025F0000B467B807B68002B08D07B681B78002B08
:1026000004D07B68DB887A889A4201D009230CE0E9
:102610007B685B78184600F0AFFE034603F00103C9
:10262000002B01D0032300E0002318460837BD46E5
:1026300080BDFFFF80B485B000AF03463960FB71F9
:10264000FB79012B01D90B2316E0FB790D4A52F8D7
:102650002330FB60FB68002B02D0FB6800221A705D
:102660003B68002B02D03B6800221A70FB790549B9
:102670003A6841F82320002318461437BD4680BC31
:10268000704700BF9C0F001080B592B000AFF8609B
:10269000B9601346FB71FB6800221A60FB7903F0F6
:1026A0001F03FB71FB7903F01E03DAB207F11C0173
:1026B00007F108031846FFF75FFD034687F8473028
:1026C00097F84730002B02D097F847304BE107F1DD
:1026D00010037B63BA6807F11C0311461846FFF725
:1026E00062FC034687F84730FB7903F01C03002B9C
:1026F00000F0CB8097F84730002B19D097F847307F
:10270000042B07D107F11C031846FFF795FA03467F
:1027100087F8473097F84730002B02D097F84730BA
:1027200021E1FB7943F00803FB713B6B3B647FE0E5
:10273000FB7903F00403002B01D0082313E13B6B6A
:102740003B643B6C002B06D03B6C0B331B7803F0D7
:102750001103002B01D0072305E1FB7903F00803E7
:10276000002B65D03B6C15331B781B021AB23B6CF7
:1027700014331B781BB213431BB29BB21B043A6C7D
:102780001B321278120211B23A6C1A32127812B25B
:102790000A4312B292B21343FB633B6C1433002220
:1027A0001A703B6C153300221A703B6C1A330022EE
:1027B0001A703B6C1B3300221A703B6C1C330022D6
:1027C0001A703B6C1D3300221A703B6C1E330022C2
:1027D0001A703B6C1F3300221A70FB6901221A71B8
:1027E000FB69DB6ABB63FB6B002B12D0FB69F96BE7
:1027F0001846FEF747FF034687F8473097F84730FB
:10280000002B02D097F84730ADE0FB69FA6B013A34
:10281000DA60FB69B96B1846FEF766FC034687F879
:10282000473097F84730002B02D097F847309AE0AE
:10283000FB7903F00803002B4AD03B6C0B330022DA
:102840001A70FDF70DFDB8633B6C0E33BA6BD2B254
:102850001A70BB6B9BB21B0A9AB23B6C0F33D2B29D
:102860001A70BB6B1A0C3B6C1033D2B21A70BB6B74
:102870001A0E3B6C1133D2B21A70FB6901221A7125
:10288000FB7943F02003FB7122E097F84730002BDF
:1028900002D097F8473066E03B6B3B643B6C002B03
:1028A00006D03B6C0B331B7803F01003002B01D0D8
:1028B000042358E0FB7903F00203002B08D03B6CA3
:1028C0000B331B7803F00103002B01D007234AE0F0
:1028D000FB69DA6AFB68DA613A6BFB681A62FB68CB
:1028E000FA799A713B6C15331B781B021AB23B6C58
:1028F00014331B781BB213431BB29BB21B043A6CFC
:102900001B321278120211B23A6C1A32127812B2D9
:102910000A4312B292B21A43FB681A613B6C1F332E
:102920001B781A063B6C1E331B781B041A433B6C46
:102930001D331B781B0213433A6C1C3212781A4366
:10294000FB68DA60FB6800229A60FB68FF22DA719C
:10295000FB6800229A61FA69FB681A60FB69DA88F1
:10296000FB689A80002318464837BD4680BD80B575
:102970008CB000AFF860B9607A603B60BB687B6286
:102980003B6800221A60FB681A68FB689B8819463E
:102990001046FFF729FE034687F8233097F82330C7
:1029A000002B02D097F823301BE1FB689B795BB2C8
:1029B000002B01DA022314E1FB689B7903F0010389
:1029C000002B01D107230CE1FB68DA68FB689B68E8
:1029D000D31AFB617A68FB699A4240F2FD80FB6979
:1029E0007B60F9E0FB689B68C3F30803002B40F0B1
:1029F000B180FB68DA79FB681B689B789A422FD319
:102A0000FB689B68002B02D1FB681B6908E0FB6830
:102A10001A68FB685B6919461046FEF760FC0346BE
:102A2000BB61BB69012B08D8FB689B7963F07F030E
:102A3000DAB2FB689A710223D3E0BB69B3F1FF3FBE
:102A400008D1FB689B7963F07F03DAB2FB689A7167
:102A50000123C6E0FB68BA695A61FB680022DA719B
:102A6000FB681A68FB685B6919461046FEF7DBFED7
:102A700078617B69002B08D1FB689B7963F07F0349
:102A8000DAB2FB689A710223ABE0FB68DB791A4685
:102A90007B6913447B617B685B0ABB62BB6A002B6A
:102AA0004FD0FB68DB791A46BB6A1344FA68126898
:102AB0009278934207D9FB681B689B781A46FB689B
:102AC000DB79D31ABB62FB681B685878BB6ADBB240
:102AD0007A69796A00F064FC0346002B08D0FB6831
:102AE0009B7963F07F03DAB2FB689A71012378E087
:102AF000FB681B681B79002B17D0FB681B68DA6A20
:102B00007B69D31ABA6A9A420FD9FB681B68DA6AE2
:102B10007B69D31A5B027A6AD018FB681B68303372
:102B20004FF400721946FEF767FAFB68DA79BB6A60
:102B3000DBB21344DAB2FB68DA71BB6A5B02FB6298
:102B400036E0FB687A699A61FB68DB790133DAB2B7
:102B5000FB68DA71FB689B68C3F30803C3F5007375
:102B6000FB62FA6A7B689A4201D97B68FB62FB6868
:102B70001A68FB689B6919461046FEF7B5FA0346CA
:102B8000002B08D0FB689B7963F07F03DAB2FB6807
:102B90009A71012325E0FB681A68FB689B68C3F300
:102BA000080330331344FA6A1946786AFEF724FAA8
:102BB0007A6AFB6A13447B62FB689A68FB6A1A4470
:102BC000FB689A603B681A68FB6A1A443B681A60A3
:102BD0007A68FB6AD31A7B607B68002B7FF402AFB4
:102BE000002318463037BD4680BD80B586B000AFA3
:102BF00078607B681A687B689B8819461046FFF7E7
:102C0000F3FC0346FB75FB7D002B40F08B807B685B
:102C10009B7903F02003002B00F084807B681A6806
:102C20007B68DB6919461046FEF75EFA0346FB75C2
:102C3000FB7D002B76D17B681B6A3B613B690B33C4
:102C40001A783B690B3342F02002D2B21A707B68CB
:102C5000DA683B691C33D2B21A707B68DB689BB2BE
:102C60001B0A9AB23B691D33D2B21A707B68DB68CB
:102C70001A0C3B691E33D2B21A707B68DB681A0EDD
:102C80003B691F33D2B21A707B681A693B691A33E9
:102C9000D2B21A707B681B699BB21B0A9AB23B695D
:102CA0001B33D2B21A707B681B691A0C3B69143350
:102CB000D2B21A707B681B691B0C9BB21B0A9AB2BA
:102CC0003B691533D2B21A70FDF7CAFAF8603B6956
:102CD0001633FA68D2B21A70FB689BB21B0A9AB21A
:102CE0003B691733D2B21A70FB681A0C3B69183370
:102CF000D2B21A70FB681A0E3B691933D2B21A703D
:102D00007B689B7923F02003DAB27B689A717B6839
:102D10001B6801221A717B681B681846FEF73EFA91
:102D20000346FB75FB7D18461837BD4680BD80B550
:102D300084B000AF78607868FFF757FF0346FB73F5
:102D4000FB7B002B02D17B6800221A60FB7B1846BC
:102D50001037BD4680BD80B588B000AF786039605F
:102D600079683B4600221846FFF706FA0346FB77D0
:102D7000FB7F002B4CD17B6807F10C029A613B680A
:102D800019467868FFF70FF90346FB77FB7F002BA6
:102D900039D17B685B69BB61BB69002B25D0BB69FE
:102DA0000B331B7803F01003002B1CD0BB691533C9
:102DB0001B781B021AB2BB6914331B781BB2134376
:102DC0001BB29BB21B04BA691B321278120211B2F9
:102DD000BA691A32127812B20A4312B292B21A4384
:102DE0007B689A6001E00523FB77FB7F002B0AD10B
:102DF0007B681B68DA887B689A8000217868FEF718
:102E000030FD0346FB77FB7F042B01D10523FB77C5
:102E1000FB7F18462037BD4680BD80B586B000AF29
:102E2000786039607B681A687B689B881946104611
:102E3000FFF7DAFB0346FB75FB7D002B2FD17B6888
:102E400007F108029A613B68002B06D100217868DF
:102E5000FEF707FD0346FB7521E07868FEF7A1FE4B
:102E60000346FB75FB7D042B04D17B6800221A61AD
:102E70000023FB75FB7D002B11D139687868FFF7C3
:102E800005F800217868FEF76DFD0346FB75FB7DB4
:102E9000042B04D17B6800221A610023FB75FB7DA3
:102EA00018461837BD4680BD80B588B000AF786041
:102EB00039607B68BB6000233B613B68BB6107F105
:102EC000080300221946034802F0F4F900BF203736
:102ED000BD4680BD0000034080B588B000AF78607B
:102EE00039600023BB607B683B613B68BB6107F1D5
:102EF000080300221946034802F0DCF900BF20371E
:102F0000BD4680BD0000034080B582B000AF0346DF
:102F1000FB71FB1D01211846FFF7C6FF00BF0837F4
:102F2000BD4680BD80B582B000AF0023FB71FB1DA4
:102F300001211846FFF7D0FFFB7918460837BD4638
:102F400080BDFFFF80B582B000AF0B4B32221A70FC
:102F5000FFF7E8FFFFF7E6FF0346FB71FB79FF2B66
:102F600004D0054B1B78DBB2002BF3D1FB7918465C
:102F70000837BD4680BD00BFA70F001080B500AF69
:102F80000421022001F0A7FBFFF7CCFF00BF80BDAA
:102F900080B500AF0421022001F0B2FBFFF7D2FFA1
:102FA0000346FF2B03D0FFF7E9FF002300E00123D6
:102FB000184680BD80B400AF00BFBD4680BC7047DE
:102FC00080B400AF00BFBD4680BC704780B400AF86
:102FD00001231846BD4680BC7047FFFF80B584B012
:102FE00000AF786039601F4B14221A70FFF79AFF08
:102FF0000346FB73FB7BFF2B04D11A4B1B78DBB220
:10300000002BF3D1FB7BFE2B01D0002326E07B6855
:103010005A1C7A6001211846FFF75EFF7B685A1C34
:103020007A6001211846FFF757FF7B685A1C7A60C7
:1030300001211846FFF750FF7B685A1C7A60012176
:103040001846FFF749FF3B68043B3B603B68002B99
:10305000DDD1FFF767FFFFF765FF01231846103743
:10306000BD4680BDA60F001080B584B000AF78606B
:103070000B46FB70FFF766FF0346FF2B01D00023D2
:103080002EE0FB781846FFF73FFFFB78FD2B26D09C
:103090000023FB737B685A1C7A601B781846FFF785
:1030A00033FF7B685A1C7A601B781846FFF72CFFA9
:1030B000FB7B013BFB73FB7B002BEBD1FF20FFF77E
:1030C00023FFFF20FFF720FFFFF72CFF0346BB7312
:1030D000BB7B03F01F03052B01D0002300E001237D
:1030E00018461037BD4680BD80B584B000AF03469A
:1030F0003960FB7197F90730002B0EDAFB7903F08A
:103100007F03FB7100217720FFF7EEFF0346BB73BF
:10311000BB7B012B01D9BB7B49E0FFF72FFFFFF7FA
:1031200037FF0346002B01D1FF2340E0FB7918460F
:10313000FFF7EAFE3B681B0EDBB21846FFF7E4FE22
:103140003B681B0CDBB21846FFF7DEFE3B681B0A30
:10315000DBB21846FFF7D8FE3B68DBB21846FFF734
:10316000D3FE0123FB73FB79402B01D19523FB7325
:10317000FB79482B01D18723FB73FB7B1846FFF7B4
:10318000C3FEFB794C2B01D1FFF7CCFE0A23FB7366
:10319000FFF7C8FE0346BB7397F90E30002B05DA24
:1031A000FB7B013BFB73FB7B002BF1D1BB7B184608
:1031B0001037BD4680BDFFFF90B585B000AF034618
:1031C000FB7101220421022001F060FA00224FF479
:1031D0000061022001F05AFAFB79002B01D0012393
:1031E000BFE0624B1B78DBB203F00203002B03D07D
:1031F0005E4B1B78DBB2B4E0FFF7DCFE0A23FB7307
:1032000004E0FFF78FFEFB7B013BFB73FB7B002B96
:10321000F7D100237B7300214020FFF765FF0346B1
:10322000012B40F08880524B64221A704FF4D57104
:103230004820FFF759FF0346012B4FD10023FB73B2
:103240000CE0FC7BFFF76EFE03461A4604F1100308
:103250003B4403F8082CFB7B0133FB73FB7B032B04
:10326000EFD9BB7A012B66D1FB7AAA2B63D100BFC1
:103270003F4B1B78DBB2002B07D04FF08041E92099
:10328000FFF732FF0346002BF2D1394B1B78DBB23C
:10329000002B50D000217A20FFF726FF0346002B99
:1032A00049D10023FB730CE0FC7BFFF73BFE034698
:1032B0001A4604F110033B4403F8082CFB7B01334E
:1032C000FB73FB7B032BEFD93B7A03F04003002B0E
:1032D00001D00C2300E004237B732CE00021E920C3
:1032E000FFF702FF0346012B04D802237B73E92377
:1032F000BB7303E001237B734123BB7300BF1C4BF3
:103300001B78DBB2002B07D0BB7B00211846FFF7F0
:10331000EBFE0346002BF2D1154B1B78DBB2002BE2
:1033200007D04FF400715020FFF7DEFE0346002B5C
:1033300001D000237B730F4A7B7B1370FFF71EFEC7
:103340007B7B002B08D0094B1B78DBB223F00103F9
:10335000DAB2064B1A7001E0FFF732FE034B1B781E
:10336000DBB218461437BD4690BD00BFA004001064
:10337000A60F0010A80F001080B483B000AF034662
:10338000FB71FB79002B01D0012302E0034B1B787A
:10339000DBB218460C37BD4680BC7047A004001055
:1033A00080B584B000AFB9607A601A460346FB73FB
:1033B0001346BB73FB7B002B02D1BB7B002B01D1DF
:1033C00004234DE0284B1B78DBB203F00103002BF4
:1033D00001D0032344E0254B1B7803F00803002BA6
:1033E00002D17B685B027B60BB7B012B11D17968CA
:1033F0005120FFF779FE0346002B29D14FF40071CD
:10340000B868FFF7EBFD0346002B21D00023BB7308
:103410001EE079685220FFF767FE0346002B17D1A4
:103420004FF40071B868FFF7D9FD0346002B0AD0AE
:10343000BB6803F50073BB60BB7B013BBB73BB7B0D
:10344000002BEDD100E000BF00214C20FFF74CFE27
:10345000FFF794FDBB7B002B14BF01230023DBB2DD
:1034600018461037BD4680BDA0040010A80F0010FC
:1034700080B584B000AFB9607A601A460346FB732A
:103480001346BB73FB7B002B02D1BB7B002B01D10E
:10349000042364E0344B1B78DBB203F00103002B00
:1034A00001D003235BE0304B1B78DBB203F0040355
:1034B000002B01D0022352E02C4B1B7803F00803B1
:1034C000002B02D17B685B027B60BB7B012B10D1A0
:1034D00079685820FFF708FE0346002B37D1FE21FC
:1034E000B868FFF7C1FD0346002B30D00023BB7343
:1034F0002DE01E4B1B7803F00603002B04D0BB7B92
:103500001946D720FFF7F0FD79685920FFF7ECFD49
:103510000346002B1BD1FC21B868FFF7A5FD03462D
:10352000002B0AD0BB6803F50073BB60BB7B013B7B
:10353000BB73BB7B002BEED100E000BFFD21002060
:10354000FFF792FD0346002B01D10123BB73FFF768
:1035500015FDBB7B002B14BF01230023DBB21846F3
:103560001037BD4680BD00BFA0040010A80F00109A
:1035700090B58BB000AF03463A60FB710B46BB7150
:103580003B683B62FB79002B01D00423BBE10123A4
:1035900087F82730BB79042B2AD13B6A1B78022B92
:1035A00017D0022B20DC002B02D0012B0BD01BE00C
:1035B000FFF70CFD0346002B01D0FFF701FD0023B0
:1035C00087F827309DE1FFF7F5FC002387F82730C7
:1035D00097E1FFF7FBFC02463B6A0133D2B21A7057
:1035E000002387F827308CE1042387F8273088E10F
:1035F000BF4B1B78DBB203F00103002B01D0032388
:1036000081E1BB790E2B00F2648101A252F823F014
:103610004D360000653600001337000023370000E8
:10362000D3380000D3380000D3380000D33800006E
:10363000D3380000D33800001538000025380000CA
:10364000493800006D380000AB380000FFF7A0FCDF
:103650000346002B00F04181002387F82730FFF755
:103660008DFC3AE100214920FFF73EFD0346002B87
:1036700040F0358107F10C0310211846FFF7AEFC2E
:103680000346002B00F02B813B7B9B09DBB2012B17
:103690000DD17B7D1A463B7D1B029BB213449BB22E
:1036A0000133FB83FB8B9A023B681A602DE07B7C25
:1036B00003F00F03DAB2BB7DDB09DBB21344DAB2ED
:1036C0007B7D5B00DBB203F00603DBB21344DBB2AD
:1036D000023387F826303B7D9B09DBB21A46FB7C20
:1036E0009B009BB213449AB2BB7C9B029BB203F437
:1036F00040639BB213449BB20133FB83FA8B97F870
:103700002630093B9A403B681A60002387F827302F
:10371000E5E03B684FF400721A80002387F82730F9
:10372000EDE0744B1B7803F00403002B2FD0002135
:10373000CD20FFF7D9FC0346002B40F0D280FFF7E5
:10374000F1FB07F10C0310211846FFF747FC034675
:10375000002B00F0C680302387F8263006E0FFF704
:10376000E1FB97F82630013B87F8263097F82630A2
:10377000002BF4D1BB7D1B09DBB21A46102303FAE0
:1037800002F23B681A60002387F82730A9E0002185
:103790004920FFF7A9FC0346002B40F0A28007F167
:1037A0000C0310211846FFF719FC0346002B00F00C
:1037B0009880504B1B7803F00203002B12D0BB7D86
:1037C0005B0003F07E03FA7DD209D2B213445A1C87
:1037D0007B7E9B09DBB2013B02FA03F31A463B688E
:1037E0001A6013E0BB7D9B109BB203F01F030133F3
:1037F000FA7DD20002F01802F97D4909C9B20A44E3
:10380000013202FB03F31A463B681A60002387F873
:10381000273066E0374B1A783B6A1A70002387F826
:1038200027306CE000214920FFF75EFC0346002BA7
:1038300059D11021386AFFF7D1FB0346002B52D033
:10384000002387F827304EE000214A20FFF74CFC88
:103850000346002B49D11021386AFFF7BFFB03460E
:10386000002B42D0002387F827303EE000217A2049
:10387000FFF73AFC0346002B3ED1042387F826309D
:103880000BE03C6A631C3B62FFF74CFB0346237072
:1038900097F82630013B87F8263097F82630002B22
:1038A000EFD1002387F8273026E00021CD20FFF755
:1038B0001BFC0346002B21D1FFF734FB4021386A63
:1038C000FFF78CFB0346002B18D0002387F8273026
:1038D00014E0042387F8273011E000BF0FE000BF99
:1038E0000DE000BF0BE000BF09E000BF07E000BF34
:1038F000A0040010A80F001000BF00E000BFFFF7F9
:103900003DFB97F8273018462C37BD4690BD00BFC9
:1039100080B582B000AF224B1B78BB71BB79002B06
:1039200005D0BB79013BBB711D4ABB7913701D4BA0
:103930001B78BB71BB79002B05D0BB79013BBB71F8
:10394000184ABB791370184B1B78BB71022000F02A
:10395000ECFE034603F40063002B14BF0123002395
:10396000DBB21A46104B1A700F4B1B78BA799A4289
:1039700012D10E4B1B78FB710B4B1B78002B04D024
:10398000FB7943F00303FB7103E0FB7923F00203AF
:10399000FB71064AFB79137000BF0837BD4680BD36
:1039A000A60F0010A70F0010A90F0010A004001010
:1039B00080B500AF00224FF46031002000F066FEB9
:1039C00000221821022000F061FE00BF80BDFFFF31
:1039D00080B588B000AF0346FB718021022000F063
:1039E0008FFE4021002000F08BFEFB1DBB600023FA
:1039F0003B610123BB6107F108030022194605481A
:103A000001F058FC4021002000F065FE00BF203787
:103A1000BD4680BD0000034080B588B000AF0346BE
:103A2000FB718021022000F056FE4021002000F0B2
:103A300067FEFB1DBB6000233B610123BB6107F1F7
:103A4000080300221946054801F034FC40210020FB
:103A500000F041FE00BF2037BD4680BD000003409E
:103A600080B5ACB000AF03463960FB710023C7F8E6
:103A7000AC300BE007F12002D7F8AC301344FA79F0
:103A80001A70D7F8AC300133C7F8AC30D7F8AC3087
:103A90003A689A42EED88021022000F01CFE4021B4
:103AA000002000F02DFE07F12003BB6000233B61E6
:103AB0003B68BB6107F1080300221946054801F085
:103AC000F9FB4021002000F006FE00BFB037BD46E4
:103AD00080BD00BF0000034080B500AF0220FFF7AB
:103AE00077FF1220FFF774FF4020FFF771FF2E20B1
:103AF000FFF76EFF8120FFF76BFF3220FFF768FFB3
:103B00008220FFF765FF8020FFF762FFA120FFF70B
:103B10005FFFA620FFF75CFFA820FFF759FF3F20BB
:103B2000FFF756FFD320FFF753FF4020FFF750FF6A
:103B3000AD20FFF74DFF8E20FFF74AFFC820FFF7AB
:103B400047FFD520FFF744FFF020FFF741FFD820C3
:103B5000FFF73EFF0520FFF73BFFD920FFF738FFB7
:103B6000F120FFF735FFDA20FFF732FF1220FFF7D1
:103B70002FFFDB20FFF72CFF3420FFF729FF9120D8
:103B8000FFF726FF3F20FFF723FF3F20FFF720FF2F
:103B90003F20FFF71DFF3F20FFF71AFFAF20FFF781
:103BA00017FFA420FFF714FF00BF80BD80B582B0CF
:103BB00000AF00237B6001220221022000F066FD9D
:103BC00001228021022000F061FD0122402100201D
:103BD00000F05CFD0221022000F092FD4021002057
:103BE00000F079FDFFF778FF4FF4407200210B4899
:103BF00002F0B2F900237B6002E07B6801337B6056
:103C00007B684FF6FE729342F7DD0221022000F03E
:103C100062FD00BF0837BD4680BD00BFAC0F00107D
:103C200080B586B000AF0346FB710B46BB711346EF
:103C30007B7100233B61FB79602B00F29180BB79A3
:103C4000402B00F28F80BB79072B02D8B023FB7585
:103C500025E0BB790F2B02D8B123FB751FE0BB79A0
:103C6000172B02D8B223FB7519E0BB791F2B02D8A2
:103C7000B323FB7513E0BB79272B02D8B423FB7564
:103C80000DE0BB792F2B02D8B523FB7507E0BB797C
:103C9000372B02D8B623FB7501E0B723FB75FB7900
:103CA0009BB21233FB81FB89DBB203F00F037B7302
:103CB000FB891B099BB2DBB243F010033B73BB795A
:103CC000DB08DBB2FB81FB89DB00FB81BB799AB2AD
:103CD000FB89D31AFB81FB89012202FA03F3FB72F1
:103CE000FB7D1846FFF774FE7B7B1846FFF770FEDE
:103CF0003B7B1846FFF76CFEFB7DA3F1B002134639
:103D00005B0013445B011A46FB7913443B617B79EA
:103D1000002B0CD0154A3B6913441A78FB7A1343E5
:103D2000D9B2124A3B6913440A461A7010E00F4A8E
:103D30003B6913441B785AB297F90B30DB435BB2F3
:103D400013405BB2D9B2094A3B6913440A461A7060
:103D5000064A3B6913441B781846FFF75DFE02E0F4
:103D600000BF00E000BF1837BD4680BDAC0F00109B
:103D700080B584B000AF0346FB710023BB73FB79B1
:103D8000012B01D1FF23BB73B023FB7311E0FB7B3D
:103D90001846FFF71DFE0020FFF71AFE1020FFF760
:103DA00017FEBB7B84211846FFF75AFEFB7B0133CD
:103DB000FB73FB7BB72BEAD9BB7B4FF440721946F0
:103DC000034802F0C9F800BF1037BD4680BD00BFF0
:103DD000AC0F001090B585B000AF04460846114600
:103DE0001A462346FB710346BB710B467B71134693
:103DF0003B7100233B730023FB730023BB73002341
:103E00007B73FB79572B02D8BB79372B01D9002361
:103E100043E07B791F2B03D997F90530002B01DA9A
:103E200020237B717B79203B7B710023FB7330E087
:103E30007A79FB7B1B49D2000A4413441B783B73FD
:103E40000023BB7319E0BB7B174AD25C3B7B13405A
:103E5000DBB2002B03D197F820307B7301E03B7974
:103E60007B737A7BB979FB791846FFF7D9FEFB792A
:103E70000133FB71BB7B0133BB73BB7B052BE2D9E9
:103E8000BB790133BB71FB79063BFB71FB7B0133D3
:103E9000FB73FB7B072BCBD9012318461437BD4698
:103EA00090BD00BF7CD3000074D3000090B585B0F6
:103EB00002AF3A601A460346FB710B46BB711346CC
:103EC0007B713B681B78002B12D03B685A1C3A6010
:103ED0001A787C79B979F8793B7E00932346FFF70D
:103EE00079FF0346002B05D0FB790633FB71E8E729
:103EF00000BF00E000BF00BF0C37BD4690BDFFFF14
:103F000080B590B000AF0346B9607A60FB73FB7B6D
:103F10007B61BB68BB617B68FB6100237B62002324
:103F2000BB6203233B6307F11403002219460748D1
:103F300000F00AFE0346012B01D1002301E04FF0FF
:103F4000FF3318464037BD4680BD00BF00000A4021
:103F500080B485B000AF03463960FB8013467B71A7
:103F60000023FB600023FB603CE0FB683A681344DD
:103F70001B785AB2FB88DBB203F00103DBB279791C
:103F800001FB03F3DBB259B2FB885B1003F00103C2
:103F9000787900FB03F39B005BB20B4359B2FB88BB
:103FA0009B1003F00103787900FB03F31B015BB264
:103FB0000B4359B2FB88DB1003F00103787900FB57
:103FC00003F39B015BB20B435BB2134359B2FB6833
:103FD0003A681344CAB21A70FB881B09FB80FB685D
:103FE0000133FB60FB68032BBFDD00BF00BF14374C
:103FF000BD4680BC7047FFFF80B584B000AF002392
:104000007B60164B1B88FB81391DFB8901221846FA
:10401000FFF79EFF124B1B88391D02221846FFF73F
:1040200097FF104B1B88391D03221846FFF790FF9E
:1040300016233B723B797B727B79BB72BB79FB7237
:10404000FB793B7307F10803052219466020FFF74F
:1040500057FF00BF1037BD4680BD00BFB012001033
:10406000AC120010AE12001080B400AF00BFBD460D
:1040700080BC704780B582B000AF03460A46FB8023
:104080001346BB80B7F90430DB431AB2164B1B88CA
:104090001BB213401BB29AB2134B1A80124B1A88F0
:1040A000FB8813439AB2104B1A80B7F90430DB43F4
:1040B0001AB20E4B1B881BB213401BB29AB20B4BA9
:1040C0001A80B7F90430DB431AB2094B1B881BB2C4
:1040D00013401BB29AB2064B1A80FFF78DFF00BF48
:1040E0000837BD4680BD00BFB0120010AC120010F2
:1040F000AE12001080B586B000AF786039607B6882
:104100001D4A934203D042211C4800F091FE3B68B7
:10411000002B03D03B681A4A934203D94321174826
:1041200000F086FE01214FF4805000F0EBF97B682F
:1041300000221A604FF400137B61182000F0B0F9E0
:1041400038613A6813469B011344FB603B695A008F
:10415000FB681A44FB685B00B2FBF3F3013BFB60B6
:10416000FB681B027A6913437B617B687A691A607A
:1041700000BF1837BD4680BD004003407CD600001C
:10418000400D030080B582B000AF78600B46FB7035
:104190007B681A4A934203D08C21194800F048FEEC
:1041A000FB78002B18D0FB78012B15D0FB78022B65
:1041B00012D0FB78032B0FD0FB78042B0CD0FB78AC
:1041C000052B09D0FB78062B06D0FB78072B03D0F4
:1041D0008D210B4800F02CFE7B681B6823F0E06209
:1041E0007B681A607B681A68FB781B061A437B6839
:1041F0001A6000BF0837BD4680BD00BF00400340C5
:104200007CD6000080B582B000AF78600B46FB70B2
:104210001346BB707B68204A934203D0DB211F48C2
:1042200000F006FEFB78002B1BD0FB78012B18D08A
:10423000FB78022B15D0FB78032B12D0FB78042BD4
:104240000FD0FB78052B0CD0FB78062B09D0FB7820
:10425000072B06D0FB78082B03D0DC210F4800F099
:10426000E7FD7B68DA68FB78012101FA03F3DB43A1
:104270001A407B68DA60BB78002B08D07B68DA686C
:10428000FB78012101FA03F31A437B68DA6000BF6F
:104290000837BD4680BD00BF004003407CD600000B
:1042A00080B582B000AF78600B46FB701346BB70E0
:1042B0007B68114A934203D0EE21104800F0B8FD0C
:1042C000BB78012B09D17B681A68FB78012101FAC0
:1042D00003F31A437B681A6009E07B681A68FB786D
:1042E000012101FA03F3DB431A407B681A6000BF27
:1042F0000837BD4680BD00BF004003407CD60000AB
:1043000080B584B000AF78600B46FB707B680D4AC7
:10431000934204D04FF481710B4800F089FD7B6813
:1043200003F11002FB789B0013441B68FB60FB68E1
:104330001B099BB2C3F30B039BB218461037BD4653
:1043400080BD00BF004003407CD6000080B586B031
:1043500000AFF8600B467A60FB72FB68184A934224
:1043600004D04FF48B71174800F062FD7B68002B7E
:1043700007D07B68012B04D04FF48C71114800F0FA
:1043800057FDFB6803F11002FB7A9B0013441B6886
:104390007B617B68002B04D07B6903F000437B6169
:1043A00003E07B6903F080437B617B69002B01D0D4
:1043B000012300E0002318461837BD4680BD00BF2A
:1043C000004003407CD6000080B485B000AF786028
:1043D00039607B681F2B02D97B68203B00E07B683B
:1043E000FB607B681F2B18D81A4BD3F8A831032128
:1043F000FA6801FA02F2D2431146164A0B40C2F89B
:10440000A831144BD3F8A8213968FB6801FA03F3EB
:1044100010491343C1F8A83117E00E4BD3F8AC3163
:104420000321FA6801FA02F2D2431146094A0B400D
:10443000C2F8AC31074BD3F8AC213968FB6801FAFC
:1044400003F304491343C1F8AC3100BF1437BD4630
:1044500080BC704700C00F4080B485B000AF78606A
:104460007B681F2B06D87B68FB600C4BD3F8A83108
:10447000BB6006E07B68203BFB60084BD3F8AC31A7
:10448000BB60BA68FB6822FA03F303F00303BB6066
:10449000BB6818461437BD4680BC704700C00F404B
:1044A00080B584B000AF7860154B1B68BB6078683E
:1044B000FFF7D2FFF860FB68032B17D801A252F870
:1044C00023F000BFD5440000DB440000E1440000BD
:1044D000E74400000423FB6008E00123FB6005E0E3
:1044E0000223FB6002E00823FB6000BFBA68FB68A0
:1044F000B2FBF3F3BB60BB6818461037BD4680BD06
:104500009C04001080B483B000AF78600B46FB7051
:10451000FB78012B0AD10F4BD3F8C42079680E4BDE
:104520000B400C491343C1F8C4300DE0FB78002B5D
:104530000AD1084BD3F8C4207B68DB431A400549F5
:10454000054B1340C1F8C43000BF0C37BD4680BCDA
:10455000704700BF00C00F40DEF7EFEF80B582B0BC
:1045600000AF78607B68074A934203D03E2106483B
:1045700000F05EFC0021034800F02CF800BF083773
:10458000BD4680BD00C008408CD6000080B584B018
:1045900000AF786039607B680C4A934203D04E21AB
:1045A0000B4800F045FC7B681B6803F48033FB601C
:1045B0003B689B019BB2FA681343FB607B68FA6817
:1045C0001A6000BF1037BD4680BD00BF00C0084064
:1045D0008CD6000080B582B000AF786039603B684F
:1045E000002B06D03B68012B03D05E210A4800F067
:1045F0001FFC7B681B6823F480327B681A603B6871
:10460000012B05D17B681B6843F480327B681A60FC
:1046100000BF0837BD4680BD8CD6000080B485B091
:1046200000AF0346FB710023FB60FB79042B1CD811
:1046300001A252F823F000BF4D460000534600008F
:10464000594600005F460000654600000A4BFB60CB
:104650000CE00A4BFB6009E0094BFB6006E0094BEC
:10466000FB6003E0084BFB6000E000BFFB681846FE
:104670001437BD4680BC704700C0092020C0092007
:1046800040C0092060C0092080C0092080B584B0E6
:1046900000AF03463960FB711346BB71FB791846C6
:1046A000FFF7BCFFF860FB68002B10D0BB79002B34
:1046B00006D0FB681A683B681A43FB681A6006E07C
:1046C000FB681A683B68DB431A40FB681A6000BF4E
:1046D0001037BD4680BD80B584B000AF0346396059
:1046E000FB71FB791846FFF799FFF860FB68002B18
:1046F00002D0FB683A689A6100BF1037BD4680BDA2
:1047000080B584B000AF03463960FB71FB79184671
:10471000FFF784FFF860FB68002B02D0FB683A6863
:10472000DA6100BF1037BD4680BD80B584B000AFF0
:104730000346FB71FB791846FFF770FFF860FB68D2
:10474000002B02D0FB685B6900E00023184610379D
:10475000BD4680BD80B483B000AF0346FB71FB79DA
:1047600003F01F03012202FA03F1054A97F907300B
:104770005B0942F8231000BF0C37BD4680BC704770
:1047800000E100E080B483B000AF0346FB71FB7929
:1047900003F01F03012202FA03F1064A97F90730DA
:1047A0005B09203342F8231000BF0C37BD4680BCA4
:1047B000704700BF00E100E080B483B000AF7860D4
:1047C0007B680C4A934201D100230DE07B680A4AC2
:1047D000934201D1012307E07B68084A934201D14B
:1047E000022301E04FF0FF3318460C37BD4680BC72
:1047F000704700BF00C0014000C0054000000A40F3
:1048000080B483B000AF78607B6820221A607B6838
:1048100008229A6100BF7B681B6803F00803002B25
:10482000F9D07B6820229A617B685B6803F0F8030B
:1048300018460C37BD4680BC704780B483B000AFCB
:1048400078607B681B6803F02003002B02D07B6834
:1048500020229A617B6810221A607B6808229A6184
:1048600000BF0C37BD4680BC704780B483B000AF3A
:1048700078600B46FB707B681B6803F02003002BFD
:1048800002D07B6820229A61FA787B689A607B6804
:1048900008229A6100BF7B681B6803F00803002BA5
:1048A000F9D07B685B6803F0F80318460C37BD4607
:1048B00080BC704780B485B000AFF860B960134623
:1048C000FB71FB79012B03D1FB6804221A6002E023
:1048D000FB6804229A61FB6808229A6100BFFB68AA
:1048E0001B6803F00803002BF9D0FB689B68DAB261
:1048F000BB681A70FB685B6803F0F803184614374E
:10490000BD4680BC7047FFFF80B584B000AF7860C3
:1049100039607B68214A93420BD07B68204A9342DE
:1049200007D07B681F4A934203D0DF211E4800F066
:104930007FFA7B68194A934208D10E20FFF7B0FD39
:1049400002463B68B2FBF3F3FB6018E07B68144A55
:10495000934208D12620FFF7A3FD02463B68B2FB35
:10496000F3F3FB600BE07B680E4A934207D13420DF
:10497000FFF796FD02463B68B2FBF3F3FB60FB6872
:104980005A087B681A617B681B69FA68D21A7B68CF
:104990005A6100BF1037BD4680BD00BF00C0014056
:1049A00000C0054000000A409CD6000080B582B0DF
:1049B00000AF786039607B68214A93420CD07B68F5
:1049C000204A934208D07B681F4A934204D040F2A9
:1049D00007111E4800F02CFA7B68194A934208D14F
:1049E00001218020FFF78EFD02210E20FFF7ECFC55
:1049F0001AE07B68134A934209D101214FF4002049
:104A0000FFF780FD02212620FFF7DEFC0CE07B682B
:104A10000D4A934210D101214FF08060FFF772FDE3
:104A200002213420FFF7D0FC39687868FFF76CFF6B
:104A30007B6864229A6100E000BF0837BD4680BDF4
:104A400000C0014000C0054000000A409CD60000A4
:104A500080B582B000AF78600B46FB70FB78002B0E
:104A600007D0FB78012B04D04FF4AC71104800F054
:104A7000DFF97B680F4A93420CD07B680E4A934261
:104A800008D07B680D4A934204D040F2591108487F
:104A900000F0CEF9FB78012B03D17B6840221A602D
:104AA00002E07B6840229A6100BF0837BD4680BDA6
:104AB0009CD6000000C0014000C0054000000A4034
:104AC00080B582B000AF78600B46FB70FB78002B9E
:104AD00017D07B68194A934203D10A20FFF73AFEA8
:104AE00027E07B68164A934203D10B20FFF732FE82
:104AF0001FE07B68134A93421BD10C20FFF72AFE6C
:104B000017E07B680D4A934203D10A20FFF73AFE73
:104B10000FE07B680A4A934203D10B20FFF732FE75
:104B200007E07B68074A934203D10C20FFF72AFE77
:104B300000BF00BF0837BD4680BD00BF00C00140B8
:104B400000C0054000000A4080B588B000AFF860A2
:104B5000B9601346FB71BB685B68FB61BB681B698E
:104B6000BB61BB680022DA60BB6800229A61BB6847
:104B700000225A62FB79002B40F03281BB68002290
:104B80001A620CE000BF0AE000BF08E000BF06E0C8
:104B900000BF04E000BF02E000BF00E000BFBB6850
:104BA0005B68FB61BB681B69BB61BB680022DA60A4
:104BB000BB6800229A6100237B61F868FFF720FE42
:104BC00078617B69082B11D07B69102B0ED0BB68F4
:104BD0001B6A5A1CBB681A62BB681A6ABB68DB692D
:104BE0009A42CFD9BB687A695A62F4E0BB689B6885
:104BF000002B4AD0BB685B68002B46D0BB681B68A3
:104C0000DBB25B00DBB21946F868FFF72EFE786175
:104C10007B69182B33D0BB681B6A5A1CBB681A62AD
:104C2000BB681A6ABB68DB699A42ADD97B6943F4F9
:104C30000072BB685A62CEE0FB691B781946F868BF
:104C4000FFF713FE78617B69282B10D0BB681B6AC5
:104C50005A1CBB681A62BB681A6ABB68DB699A4255
:104C600094D97B6943F40072BB685A62B3E0FB6974
:104C70000133FB61BB68DB685A1CBB68DA60BB6848
:104C8000DA68BB689B689A42D6D3BB689B68002BE6
:104C900025D0BB685B68002B21D0BB685B69002B0B
:104CA0001DD0BB681B69002B19D0F868FFF7A8FD61
:104CB00078617B69082B12D07B69102B0FD0BB6801
:104CC0001B6A5A1CBB681A62BB681A6ABB68DB693C
:104CD0009A427FF65DAFBB687A695A627BE0BB6837
:104CE0005B69002B72D0BB681B69002B6ED0BB6860
:104CF0001B68DBB25B00DBB243F00103DBB2194699
:104D0000F868FFF7B2FD78617B69402B58D0BB682B
:104D10001B6A5A1CBB681A62BB681A6ABB68DB69EB
:104D20009A427FF637AF7B6943F40072BB685A62E0
:104D300051E0BB689A69BB685B69013B9A421AD231
:104D400007F1130301221946F868FFF7B3FD7861F4
:104D50007B69502B2AD0BB681B6A5A1CBB681A623D
:104D6000BB681A6ABB68DB699A427FF615AFBB68FD
:104D70007A695A622FE007F1130300221946F86896
:104D8000FFF798FD78617B69582B0FD0BB681B6AD1
:104D90005A1CBB681A62BB681A6ABB68DB699A4214
:104DA0007FF6FCAEBB687A695A6214E0BB695A1C94
:104DB000BA61FA7C1A70BB689B695A1CBB689A611D
:104DC000BB689A69BB685B699A42B2D3F868FFF71F
:104DD00034FD012326E0F868FFF72FFD002321E0D2
:104DE000FB79012B1DD1F868FFF7E6FC0346DBB227
:104DF000FB74FB7C1946BB680C4A42F83130FB7CE3
:104E00000A4ADB00134400225A60FB6808229A61B8
:104E1000FB6820221A600121F868FFF751FE012388
:104E200000E0002318462037BD4680BDB4120010B4
:104E300080B483B000AF7860396000BFFDE7FFFF4A
:104E400080B487B000AF0346FB710B46BB711346BD
:104E50007B71BB797B61FB795B003B61174BFB602E
:104E60007B690F2B05D97B69103B7B613B69013363
:104E70003B613B699B00FA68134419687B695B00DE
:104E8000032202FA03F3DA433B699B00F868034408
:104E90000A401A603B699B00FA68134419687A79E2
:104EA0007B695B009A403B699B00F86803440A43B6
:104EB0001A6000BF1C37BD4680BC704700C002406E
:104EC00080B487B000AF0346FB710B46BB7113463D
:104ED0007B71BB797B61FB795B003B61174BFB60AE
:104EE0007B690F2B05D97B69103B7B613B690133E3
:104EF0003B613B699B00FA68134419687B695B005E
:104F0000032202FA03F3DA433B699B00F868034487
:104F10000A401A603B699B00FA68134419687A7961
:104F20007B695B009A403B699B00F86803440A4335
:104F30001A6000BF1C37BD4680BC704740C00240AD
:104F400080B485B000AF0346FB710B46BB711346BE
:104F50007B71144BFB607B79012B0ED1FB799B009D
:104F6000FA6813441968BB7901229A40FB799B00C7
:104F7000F86803440A431A600FE0FB799B00FA6863
:104F800013441968BB79012202FA03F3DA43FB796F
:104F90009B00F86803440A401A6000BF1437BD46FE
:104FA00080BC704768C0024080B582B000AF7860B6
:104FB0007B6818787B6859787B689B781A46FFF77E
:104FC0003FFF7B6818787B6859787B68DB781A46E6
:104FD000FFF776FF7B6818787B6859787B681B79C8
:104FE0001A46FFF7ADFF00BF0837BD4680BDFFFF83
:104FF00080B586B000AF786039607B682A4A9342FA
:1050000007D07B68294A934203D043212848FFF701
:105010000FFF7B68244A934204D12A20FFF740FA0D
:10502000B86007E07B68214A934239D11420FFF72A
:1050300037FAB86000233B614FF0FF33FB60022377
:105040007B6117E03B6901337A6902FB03F3BA68BD
:10505000B2FBF3F3FB60FA683B689A420AD93B69FA
:1050600001333B613B69FF2B04D900233B617B6922
:1050700002337B61FA683B689A42E3D87B681B681D
:10508000DAB27B681A607B681A683B691B029BB2C4
:105090001A437B681A607B69DAB27B681A6100E0A8
:1050A00000BF1837BD4680BD0080084000000340A7
:1050B000ACD6000080B584B000AF786039607B6802
:1050C000204A934207D07B681F4A934203D0812134
:1050D0001E48FFF7ADFE7B681A4A934205D10121B5
:1050E0004FF40010FFF70EFA08E07B68164A93426F
:1050F00023D101214FF48060FFF704FA3B685A681E
:105100003B689B681A433B681B691A433B681B68F2
:1051100013439BB2FB607B68FA681A603B68DB68EC
:1051200003F00F03FB607B68FA685A603B685B69B9
:1051300019467868FFF75CFF00E000BF1037BD46F6
:1051400080BD00BF0080084000000340ACD60000D6
:1051500080B582B000AF78607B680A4A934207D07E
:105160007B68094A934203D0C0210848FFF760FEDC
:105170007B681B68DBB203F00F03DBB2184608370D
:10518000BD4680BD0080084000000340ACD6000052
:1051900080B483B000AF78607B6800225A607B687F
:1051A00000229A607B68084A5A617B6807221A606D
:1051B0007B680022DA607B6800221A6100BF0C372E
:1051C000BD4680BC704700BF40420F0080B582B032
:1051D00000AF78600B46FB707B68144A934207D09F
:1051E0007B68134A934203D0E5211248FFF720FE63
:1051F000FB78002B06D0FB78012B03D0E6210D486D
:10520000FFF716FEFB78012B06D17B685B6843F045
:1052100002027B685A6005E07B685B6803F00D0260
:105220007B685A6000BF0837BD4680BD00800840DB
:1052300000000340ACD6000080B582B000AF7860BB
:105240000B467B807B68094A934208D07B68084AFA
:10525000934204D04FF49A710648FFF7E9FD7A882B
:105260007B689A6000BF0837BD4680BD008008405B
:1052700000000340ACD6000080B582B000AF78607B
:105280007B68094A934208D07B68084A934204D05D
:105290004FF4A2710648FFF7CBFD7B689B689BB279
:1052A00018460837BD4680BD008008400000034016
:1052B000ACD6000080B58CB000AFF860B960134682
:1052C000FB71BB680022DA60BB6800225A60BB68D1
:1052D00000225A6104E0F868FFF7CEFF03467B61C5
:1052E000FB68DB6803F00403002BF4D1FB680322A6
:1052F0001A62F868FFF72CFF0346082B02D9012336
:10530000FB6101E00023FB61FB79002B40F0C080D2
:10531000FB69002B06D1BB689B68FB62BB681B68FE
:10532000BB6293E0BB689B687B62BB681B683B62A7
:105330008CE0FB68DB6803F00203002B41D0BB6804
:105340005A68BB681B699A423BD0BB681B68002B3C
:1053500017D1FB69002B09D1FF21F868FFF76CFF1B
:10536000BB685B685A1CBB685A602AE04FF6FF7145
:10537000F868FFF761FFBB685B689A1CBB685A60FE
:105380001FE0FB69002B0ED1BB6A1B781946F86839
:10539000FFF752FFBB6A0133BB62BB685B685A1CF4
:1053A000BB685A600DE03B6A1B881946F868FFF736
:1053B00043FF3B6A02333B62BB685B689A1CBB6875
:1053C0005A60FB689B69BB61BB6903F00103002B5A
:1053D00030D0BB6943F40072BB685A614FF0FF33B1
:1053E00009E1F868FFF748FF03467B61BB689B68EB
:1053F000002B11D0FB69002B07D17B69DAB2FB6A65
:105400001A70FB6A0133FB6206E07B699AB27B6A21
:105410001A807B6A02337B62FB69002B05D1BB6873
:10542000DB685A1CBB68DA6004E0BB68DB689A1C66
:10543000BB68DA60FB68DB6803F00403002B05D06F
:10544000BB68DA68BB681B699A42CAD1BB685A68F4
:10545000BB681B699A427FF46CAFBB68DA68BB68B3
:105460001B699A427FF465AFBB684FF480725A6142
:10547000BB681B68002B02D0BB685B68BBE0BB68E5
:105480009B68002B02D0BB68DB68B4E00023B2E06D
:10549000FB79012B40F0AD8088E0BB681B68002BD6
:1054A00017D1FB69002B09D1FF21F868FFF7C4FE73
:1054B000BB685B685A1CBB685A602EE04FF6FF71F0
:1054C000F868FFF7B9FEBB685B689A1CBB685A6056
:1054D00023E0FB69002B10D1BB681B681A46BB6830
:1054E0005B6813441B781946F868FFF7A5FEBB6894
:1054F0005B685A1CBB685A600FE0BB681B681A46A1
:10550000BB685B6813441B881946F868FFF794FE74
:10551000BB685B689A1CBB685A60FB689B69BB618F
:10552000BB6903F00103002B34D0BB6943F4007264
:10553000BB685A614FF0FF335DE0F868FFF79CFEEF
:1055400003467B61BB689B68002B15D0FB69002B71
:1055500009D1BB689B681A46BB68DB6813447A694B
:10556000D2B21A7008E0BB689B681A46BB68DB6859
:1055700013447A6992B21A80FB69002B05D1BB688B
:10558000DB685A1CBB68DA6004E0BB68DB689A1C05
:10559000BB68DA60FB68DB6803F00403002B05D00E
:1055A000BB68DA68BB681B699A42C6D1FB68DB68D6
:1055B00003F00203002B06D0BB685A68BB681B6966
:1055C0009A427FF46AAFBB68DA68BB681B699A428B
:1055D00005D1BB685A68BB681B699A4203D0FB6857
:1055E0000F225A6103E0BB684FF480725A610023B6
:1055F00001E04FF0FF3318463037BD4680BDFFFF56
:1056000080B584B000AF78607B68032B1ED801A200
:1056100052F823F0255600002F560000395600009E
:10562000435600000220FEF73BFFF8600EE0042026
:10563000FEF736FFF86009E02C20FEF731FFF86036
:1056400004E02E20FEF72CFFF86000BFFB68184630
:105650001037BD4680BD00BF2DE9B04F84B000AF0C
:10566000786039607868FFF7CBFF034600229A46DE
:105670009346C7E902AB3B68002298469146BB6857
:1056800009FB03F2FB6808FB03F31344BA68A2FBAF
:1056900008452B441D46084A4FF000032046294682
:1056A00000F0C2FA02460B46C7E90223BB6818465F
:1056B0001037BD46BDE8B08F40420F0080B485B0C2
:1056C00000AF78604FF0FF33FB607B68B3F1402F91
:1056D00002D10023FB6013E07B680C4A934202D1A5
:1056E0000123FB600CE07B68094A934202D102234C
:1056F000FB6005E07B68074A934201D10323FB600E
:10570000FB6818461437BD4680BC704700800040D7
:10571000000009400040094080B584B000AF7860C7
:105720000B46FB707B68B3F1402F0FD07B681C4A9F
:1057300093420BD07B681B4A934207D07B681A4A7E
:10574000934203D0A6211948FFF772FBFB78002B88
:1057500012D0FB78012B0FD0FB78022B0CD0FB78FA
:10576000032B09D0FB78042B06D0FB78052B03D044
:10577000A7210E48FFF75CFB7B681B68DAB2FB7859
:10578000012101FA03F3DBB21340FB73FB7B002B17
:1057900001D0012300E0002318461037BD4680BD2C
:1057A000008000400000094000400940BCD60000D5
:1057B00080B582B000AF78600B46FB707B68B3F1B8
:1057C000402F0FD07B68184A93420BD07B68174A52
:1057D000934207D07B68164A934203D0DD211548D7
:1057E000FFF726FBFB78002B12D0FB78012B0FD0A4
:1057F000FB78022B0CD0FB78032B09D0FB78042B11
:1058000006D0FB78052B03D0DE210A48FFF710FBFA
:10581000FB78012202FA03F31A467B681A6000BF84
:105820000837BD4680BD00BF008000400000094031
:1058300000400940BCD6000080B586B000AFF860DB
:105840000B467A60FB72FB68B3F1402F10D0FB6807
:10585000564A93420CD0FB68554A934208D0FB68E5
:10586000544A934204D040F22B115348FFF7E0FA18
:10587000FB7A002B0DD0FB7A012B0AD0FB7A012B8F
:1058800007D0FB7A012B04D04FF496714A48FFF7FA
:10589000CFFAFB68B3F1402F08D101210220FEF7B7
:1058A00031FE00210220FEF78FFD27E0FB683F4A12
:1058B000934208D101210420FEF724FE0021042098
:1058C000FEF782FD1AE0FB68394A934209D10121B3
:1058D0004FF48000FEF716FE00212C20FEF774FD29
:1058E0000CE0FB68334A934208D101214FF40000D9
:1058F000FEF708FE00212E20FEF766FDFB689B6A7E
:1059000023F00302FB689A62FB689A6AFB689A625A
:10591000FB6800229A60FB6800221A61FB68002283
:10592000DA60FB685B6843F00202FB685A60FB6860
:105930005B6823F00202FB685A60FB7A002B1AD1E5
:105940007B683B613B691B78002B05D13B695B6839
:105950005A1EFB68DA6020E0F868FFF7AFFE0246E7
:105960003B695B6819461046FFF776FE03465A1EF0
:10597000FB68DA6011E07B687B61FB689B6A23F05F
:105980000C02FB689A627B695B78012B05D1FB688E
:105990009B6A43F00402FB689A62FB684FF0FF3297
:1059A0001A6000BF1837BD4680BD00BF00800040B0
:1059B0000000094000400940BCD6000080B582B01C
:1059C00000AF78600B46FB707B68B3F1402F10D0BE
:1059D0007B68124A93420CD07B68114A934208D0EC
:1059E0007B68104A934204D04FF4CD710E48FFF704
:1059F0001FFAFB78012B06D17B685B6843F001023C
:105A00007B685A6005E07B685B6823F001027B6875
:105A10005A6000BF0837BD4680BD00BF008000400F
:105A20000000094000400940BCD6000080B582B0AB
:105A300000AF786039607B68B3F1402F10D07B688D
:105A4000584A93420CD07B68574A934208D07B68EF
:105A5000564A934204D040F2D1115548FFF7E8F975
:105A60003B681B79002B10D03B681B79012B0CD0B5
:105A70003B681B79022B08D03B681B79032B04D0B1
:105A80004FF4E9714A48FFF7D3F93B681B78032BC1
:105A90001FD801A252F823F0A95A0000B35A0000FF
:105AA000BD5A0000C75A00003B689A687B689A613B
:105AB00010E03B689A687B68DA610BE03B689A68A3
:105AC0007B681A6206E03B689A687B685A6201E06C
:105AD000FFE7FDE77B685A693B681B7819460B4670
